:1020000000800020398A0000918E0000218A0000A3
:1020100000000000000000000000000000000000C0
:10202000000000000000000000000000218A000005
:102030000000000000000000218A00008D8A0000DE
:10204000218A0000218A0000218A0000218A0000E4
:10205000558E0000218A0000218A0000258A000098
:10206000218A000035750000218A0000218A0000C5
:1020700001440000218A000045750000218A00000B
:10208000218A0000218A0000218A0000218A0000A4
:1020900000000000218A0000218A0000218A00003F
:1020A000218A0000218A0000218A0000218A000084
:1020B0000000000010B5064C2378002B07D1054B1B
:1020C000002B02D0044800E000BF0123237010BDA4
:1020D000B0010020000000002C25010008B5084BCD
:1020E000002B03D00748084900E000BF07480368F9
:1020F000002B03D0064B002B00D0984708BDC046EC
:10210000000000002C250100B4010020AC010020DB
:1021100000000000410903D14000C2B21F2304E0C7
:10212000012904D11F2383433F22002014E0022908
:1021300004D11F22104000233F220DE0032908D1C3
:102140001F210840420052423F32D2B20023081CF5
:1021500002E000231A1C181C5201C0028018C0188B
:102160007047000000000000F0B595B01B9E09907C
:102170001DA800789B191A9F0A9382230B90009345
:10218000BF195B4209980D9707F05DFF82235B4200
:102190000E9005930B9F1F260696052F2CD8381CF2
:1021A00009F084F9032706091119F8231B0222E01C
:1021B0001F26069620E07F2382210093059849423E
:1021C000822200230EE07F2382210093059849425A
:1021D00082223F2306E03F23822105980093494253
:1021E00082227F2307F02FFFC0B2FFF793FF0690F4
:1021F00002E0FC23DB00069305985A380BF09CFDA7
:10220000824B814A0AF0AAFF061C0F1C05F0ECF96C
:102210000BF056FE391C051C301C05F039FA0BF08A
:102220004FFE209A1B9F041CB81A09F065FF071C7B
:102230000A9809F061FF391C061C281C09F0A2FC51
:10224000311C09F07DFA09F063FA80B20F900D9805
:1022500009F052FF391C0790201C09F093FC0799E4
:1022600009F06EFA09F054FA80B210901B9809F048
:1022700043FF08900899281C09F084FC311C09F0E0
:102280005FFA09F045FA80B208991190201C09F014
:1022900079FC079909F054FA09F03AFA80B21290E1
:1022A000059855380BF048FD584B574A0AF056FF31
:1022B000041C0D1C05F098F90BF002FE291C0C9073
:1022C000201C05F0E5F90BF0FBFD391C041C0C98F3
:1022D00009F058FC311C09F033FA09F0EDFE391C05
:1022E0001390201C09F04EFC079909F029FA09F017
:1022F000E3FE0899071C0C9809F044FC311C09F016
:102300001FFA09F0D9FE0899061C201C09F03AFCB6
:10231000079909F015FA09F0CFFEBFB2119B129A86
:10232000BC460F9F9DB239B293B2109F139A94B2DC
:102330003AB237B206B207970896059F0E9EB7428B
:102340001BDA069F1EB2BFB206976046069B07B215
:102350002DB224B2029703932D48009601942B1CB2
:1023600000F048FE0097079F29480197089F291C05
:102370000297069F321C039717E01EB2604606962E
:102380000096244E07B22DB224B202972048019441
:1023900003962B1C00F02EFE0097079F1C48019708
:1023A000089F069A02970396291C231C00F022FE20
:1023B000059E0A360596822E00D0EBE6144C16498F
:1023C000201C002201F02EF91F981E9F02B239B284
:1023D000201C01F01CF9201C072101F01BF9099EAB
:1023E000092E03DC201C0D4907F092F809990A22F6
:1023F000201C07F0F8F8201C1C9907F089F80A9FA8
:102400001B9EB81915B0F0BD11E7FAA146DF913F48
:10241000D40100208A520000FFFF00006404010084
:1024200070B50E4D0E4C2B68201C032B11D00D499E
:1024300007F06EF80C4E201C311C07F085F8311C9B
:102440000A4A0B4802F01EF928600A4806F032FBDF
:10245000E7E7094907F078F870BDC0467802002028
:10246000DC0B0020660401002E0000202400002068
:10247000E80400208813000086040100000000002A
:1024800010B52D2006F0BAFD09F092FEEA2189056B
:1024900009F078FB011C09F053F90BF0BFFC154B58
:1024A000134A0AF05BFE0BF00BFD0BF0B7FC124A6F
:1024B000124B0BF0E3F8124A124B0AF04FFE124A8D
:1024C000124B0AF0E1F90BF0FBFC1149041C09F076
:1024D0000BF9002807D1201C002109F0F1F8002891
:1024E00002D0002400E00A4C201C10BDC046C046AB
:1024F0006666666666660A409A9999999999014056
:102500000000000000005940CDCCCCCCCCCC004029
:102510000000C842C046C04613B500230093191CF2
:102520001A1C124806F04EFF114B124C1A68124B3F
:10253000201C1A60114B09211A68114B38321A609D
:102540000D2300930F4B0A22019301235B4201F0FC
:10255000A1FB0D4A201C0D490BF05CFD06210C4827
:1025600001F0BAFB0B4802F077FC13BD4C020020CF
:1025700020000020D4010020D0010020080000200D
:10258000480200209402002000000020CD3C000002
:102590006802002054020020F0B50D2085B0012112
:1025A00006F0A4FD0D20012106F0FAFD624C022385
:1025B000201C082107220093042301F03FFF201C68
:1025C00002F098FA5D4C9621201C890107F086FEE6
:1025D0005B48412101F06EFC002804D1201C5949C0
:1025E00006F0B2FFFEE7584C0D21201C01F06EFAF8
:1025F000201C012101F0B0FA201C002100F041FC58
:1026000078230093B4230193504BAA21504D4622C6
:102610000293201C4F4B490000F0D8FD201C0821DC
:1026200000F0F8FF201C291C00F0F9FFBE215A22FF
:10263000201C490000F0EBFF201C474906F068FF12
:10264000201C291C00F0EBFFBE21201CAA224900FF
:1026500000F0DDFF201C414906F05AFF20238222B2
:102660000093019302953E4B201C4B21520000F039
:10267000ADFD84225200201C752100F0C8FF201CF3
:10268000032100F0C7FF201C291C00F0C8FF201CFC
:10269000344906F03DFF344F344E39680023F25E72
:1026A000232300935A31382301930295201C09B249
:1026B0002F4B00F08BFD396832682323009356318D
:1026C00038233C32019302952A4B201C09B212B2E6
:1026D00000F07CFD5021201C1322FF3100F097FFF9
:1026E000201C254906F014FF50210A22201CFF322D
:1026F000FF3100F08CFF201C204906F009FF204D1F
:10270000124B40273026A0210293201C2B1C00973F
:102710000196FF31042200F059FD0C4BA0210293D9
:10272000201CFF31FA222B1C0097019600F04EFD71
:10273000FFF776FE05B0F0BDE8040020DC0B0020BA
:1027400068020020A0040100D40100208A52000089
:10275000FFFF000082080100C60401000C1A0100FE
:1027600002080100C8040100200000200800002029
:10277000EA060100CC010100D0040100D4040100EC
:10278000E402010030B51A4A0121137885B04B40AC
:1027900030251370174C0095002B13D00023A02177
:1027A0000193201CFF310422402300F084FF4023CA
:1027B0000093114BA02102930195201CFF310422AC
:1027C0000E4B11E0A0210193201CFF310422402375
:1027D00000F071FF40230093094BA0210293094BA5
:1027E0000195201CFF31042200F0F0FC05B030BD43
:1027F00088020020D4010020FFFF00006A050100CC
:102800008A520000E402010030B51A4A012113780F
:1028100085B04B4030251370174C0095002B13D01A
:102820000023A0210193201CFF31FA22402300F055
:1028300042FF40230093114BA02102930195201CDD
:10284000FF31FA220E4B11E0A0210193201CFF3131
:10285000FA22402300F02FFF40230093094BA021D0
:102860000293094B0195201CFF31FA2200F0AEFCC7
:1028700005B030BD44020020D4010020FFFF00005D
:102880006A0501008A520000E402010030B5234DC0
:1028900087B02349281C06F057FEFFF7F1FD09F029
:1028A0000BFC0A22011C684607F043FC1D4903A8E3
:1028B00007F01BFC694603A807F066FC011C281CF6
:1028C00006F038FE03A807F0C9FB174C201C02F0E5
:1028D00051F9BC22201C1549FF3202F0B9FA002838
:1028E00013D0281C124906F02FFE201C114906F0B7
:1028F0002BFE201C104906F027FE201C0F4906F075
:1029000023FE201C06F00EFE03E0281C0C4906F0F6
:102910001BFE684607F0A2FB07B030BDDC0B0020B1
:10292000D9040100EC040100540200200C00002036
:10293000F204010006050100250501003A05010029
:102940004C050100F0B58DB006F0AEF86F4E704B3F
:102950003268801A984216D96E4801F00FFF6E4D0A
:10296000071C6E49281C06F0D3FD0A22391C281CBE
:1029700006F01BFE6A49281C06F0E6FDFFF786FFFD
:1029800006F092F83060674D281C01F075FA0028B7
:1029900077D0281C01F077FA061E1FD16F460BACCA
:1029A0002E376B46211C281C3A1C2B3301F036FBBA
:1029B000A023208896215C4A5B00009607F043FB29
:1029C000F0235B00FA2284B282213888120100933E
:1029D000331C07F038FB80B20990DAE7FF22281C8D
:1029E0000B2101F0B3F95023099AFF339A4248D9D9
:1029F000432C0CD806F058F84C4C2368C01AC82851
:102A00003FD906F051F82060FFF7BCFE39E09F2C5B
:102A100012D806F049F8454C2268801AC82830D9E7
:102A200006F042F8424B20601A68191C6323622AA0
:102A300000DC531C0B6024E0F92C12D806F034F8AB
:102A40003A4C2368C01AC8281BD906F02DF8384A1A
:102A500020601368002B01DB013B00E000231360C2
:102A60000FE0E023FF339C420BD806F01DF82F4CFB
:102A70002268801AC82804D906F016F82060FFF7EB
:102A8000C3FE06F011F82B4C2368C01AC8283BD9A6
:102A900006F00AF8264D2060274C286822689042EC
:102AA00015D0A0220192254A00230292032203920C
:102AB000234A009312682B210492224A126805923D
:102AC000142206926322FFF74FFB2D6825601E4DEE
:102AD0001E4C28682368984216D082220192174A19
:102AE0001E23029203220392154A009312680021CA
:102AF0000492144A12683C32059214220692632210
:102B0000FFF732FB2D6825600DB0F0BD8402002078
:102B100030750000E8040020DC0B00205E05010099
:102B20006505010068020020D80E00008002002028
:102B300004000020740200207C0200200A22010010
:102B400020000020080000201C000020CC010020F4
:102B5000437A002B04D18372C372C3600123437292
:102B6000704730B585B0041C02AD00680291039235
:102B700006F04CFE6B79E179227A009320680023FD
:102B800006F0B0FF29792068029A06F00FFE20684F
:102B900006F032FE05B030BD70B5041C1826FFF7F4
:102BA000D7FF2079331C43430D4D0821EB185956AC
:102BB00006F03EFBA079331C43430821EB1859561D
:102BC00006F036FB607908214643AD19695606F0D8
:102BD0002FFB044B201C06CBFFF7C3FF70BDC04684
:102BE000D01B01008C02002010B5041C006806F008
:102BF000F5FD0023637210BD07B5837A0091019241
:102C0000002B0DD09A0706D5EFF310835A4253419B
:102C1000C37272B604E0DA0702D58289034B9A6068
:102C20000099019AFFF79DFF07BDC04600180040BC
:102C3000837A002B0BD09A0704D5C37A002B06D0D9
:102C400062B604E0DA0702D58289014BDA60704788
:102C50000018004008B5006806F0E1FD08BD00005E
:102C6000094B0A4A0A491A6000225A711A71094B23
:102C700019601621197118219971172159710121B3
:102C80005A72D9711A7270478C02002000093D00F7
:102C9000340B002094020020002070477047000091
:102CA000F0B587B01E1C0CAB071C151C00201B5E6A
:102CB0000DAA12880C1C591B0492CA17891851407E
:102CC000321BD01712184240914208DD321C0121FC
:102CD0001E1C131C221C01912C1C151C01E000223F
:102CE0000192B44205DD2A1C1D1C131C221C341C3D
:102CF000161C321B92B202925A1BD1175018484030
:102D00000590029802B2D10F8A18521092B2009226
:102D10009D4202DA012103911FE0154A03921CE053
:102D200001983B6800281BD09969381C8C46221CEE
:102D3000291C049BE04700980599431A9BB29AB25C
:102D4000009212B2002A06DA029903985B182D1835
:102D50009BB22DB20093013424B2B442E0DD05E011
:102D60009A69381C9446211C2A1CE2E707B0F0BD82
:102D7000FFFF0000704710B504682469A04710BD2C
:102D800037B506AC258804680095A46BA04737BD0D
:102D900037B506AC258804680095E46BA04737BDBD
:102DA00073B506AC0025665F07AC258804680096FD
:102DB0000195246CA04773BD7047F0B585B01F1C0A
:102DC0000AAB1B88161C03930368013F5B69041C54
:102DD0000D1CBF199847039A23683FB201920097D0
:102DE0009F6A201C291C321C2B1CB8472368201CFE
:102DF000DB6A984705B0F0BDF0B585B01F1C0AAB83
:102E00001B88041C039303680E1C5B69151C984700
:102E1000039922687B1E019100959B19976A201CDB
:102E2000311C2A1C1BB2B8472368201CDB6A984758
:102E300005B0F0BDF0B587B003930CAB0E1C171CAA
:102E40000022995E0DAB1B88049105930368041C56
:102E50005B699847351C039BF218236895420BDA8F
:102E60000599201C00911A6A291C9446049B3A1C5F
:102E70000135E0472DB2EEE7DB6A201C984707B02A
:102E8000F0BD37B50C24035F0E25445F0268019145
:102E900000940021146C0A1CA04737BDF0B585B022
:102EA00002930AAB0E1C00215F5E0BAB1B88151C46
:102EB0000393029B041C02689E420BD1BD4202DDBB
:102EC0002B1C3D1C1F1C03997B1C5B1B00911BB220
:102ED000976B0EE0BD4211D1029B9E4202DD331C76
:102EE000029E0293029B0399013300919B1BD76BB7
:102EF0001BB2201C311C2A1CB8470FE053699847AD
:102F0000039A2368019200979F6A201C029B311C40
:102F10002A1CB8472368201CDB6A984705B0F0BD1F
:102F2000F0B585B01F1C0AAB151C0E1C0022995E63
:102F30000BAB1B88039102930368041C5B699847E1
:102F40000299236800915A6A201C9446311C2A1C5D
:102F50003B1CE04702992368039A0091596A013AA1
:102F600052198C46201C311C3B1C12B2E047029ABD
:102F700023680092196A201C8C462A1C311C039B72
:102F8000E047029A2368013F0092BE1931B21F6ADE
:102F9000201C2A1C039BB8472368201CDB6A984727
:102FA00005B0F0BD7047032319404176038942897B
:102FB000012904D0032902D08381C28101E08281EA
:102FC000C381704710B50A4C4281C281012200239F
:102FD0000834018181815142436004604376038259
:102FE00043820276C18281828276C376C36110BD3C
:102FF00010130100F0B593B01E1C18AB0D1C041C7F
:103000000021585E19AB049200229F5E1AAB039018
:103010000021585E1BAB1B88049A0993039B059003
:103020009A4205DD03982B1C0490351C03921E1C4C
:103030000399059A914204DD331C03923E1C0591CD
:103040001F1C049B0398834204DD03932B1C0490F4
:10305000351C1E1C2368201C5B6998470499059A3F
:10306000914218D1AE4202DB331C2E1C1D1CB7420C
:1030700005DB2B1CBD4200DA3B1C1DB2371C099836
:1030800022686B1C0090DB1B566A1BB2201C391C8B
:10309000049AB04794E0B6B2ADB20399049A731B98
:1030A0009BB20D938BB291B25A1A92B2BFB20E92EA
:1030B00005987A1B92B20F9282B2511A89B20C9182
:1030C000BF1BD21A0399BFB292B208960795109708
:1030D0001192814203D0013B1AB20B9201E0039B93
:1030E0000B930027049E06970F990B9A09B20A9139
:1030F00096422BDC0E9801B2069808F02FFA0C9A33
:1031000007990D1811B2381C08F028FA0799ADB2CA
:103110000B180D98069902B289180A9A9BB206916B
:10312000BF1829B21AB2914202DC1A1C2B1C151CC2
:10313000099822680135009019B2EB1A1BB2556A42
:10314000201C321C0136A84736B2CDE7109B0398ED
:103150001BB206930699331A049A59430A9BB71A6D
:103160005F43039105998E422ADC119801B20398BE
:1031700008F0F4F90C9A08990D1811B2381C08F0EF
:10318000EDF90799039A0B1806980A991218ADB22F
:103190009BB203927F181AB229B2914202DC1A1C28
:1031A0002B1C151C099822680135009019B2EB1AE6
:1031B0001BB2556A201C321C0136A84736B2D1E733
:1031C0002368201CDB6A984713B0F0BDF0B58BB0C4
:1031D000079310AB041C05910021585E11AB0290BF
:1031E000069200201A5E12AB1B880892099323688E
:1031F000201C5B699847029B00250733DA17520FA2
:10320000D318DB1003932F1C2E1C069A0898BB18AA
:103210009BB204933BB2834225DA00210191019ACB
:10322000029891B20BB2834219DA4A0702D07600B3
:10323000F6B203E00798DB104219D65C73B2002B9C
:103240000ADA2368059A0498891802B2986909B2C3
:103250008446099B201CE04701990131DEE7039970
:1032600001376D18D1E72368201CDB6A98470BB043
:10327000F0BD0000F0B595B01E1C1AAB1B88041CF5
:103280000A931BAB1B88069104931CAB1D78C36982
:103290000992002B00D0B1E00C20235E8B4200DCB1
:1032A00036E10E21635E934200DC31E106236B437D
:1032B000069AD318002B00DC2AE10998EB00C3180A
:1032C000002B00DC24E1E37E002B03D1AF2E01D9DB
:1032D0000136F6B22368201C5B69984705235E43DC
:1032E00000210F960D930891089A0F9853B2894ABE
:1032F00006991218D25C9BB207936B4389B20B926A
:10330000099ACB1896B29BB20E93331C08339BB22A
:1033100005911093371C0C960B9BDB0714D5206886
:10332000012D09D1079A059BD118836909B29C46E2
:103330003AB2201C0A9B17E00E9A33B211932BB2BB
:1033400011B200930A9A19E0049B0A9883421BD099
:103350002068012D0AD1079A059BD118836909B20B
:103360009C46049B3AB2201CE0470DE00C9B0E9A51
:103370001BB211B21193049A2BB200930192C2694D
:10338000201C9446119AE0470B9B0C985B080B930A
:1033900001374319109976199BB2BFB2B6B20C939C
:1033A0008F42B9D1089B0133DBB208930D9B013BDF
:1033B000DBB20D93002B97D1049A0A9B9A4200D15D
:1033C000A2E02268012D0AD10498059900900531E8
:1033D000156A09B2201C099A0823A84794E0052120
:1033E0006943059B049859182BB2ED000190009594
:1033F000D56909B2201C099AA84785E01A7A59684C
:10340000B61AF6B21B68F60076183288F078717931
:103410001193B378B67905920C9312900D910E9694
:10342000012D06D90E9A4EB253B29BB2B6B2079393
:1034300002E0002307931E1C2368201C5B696E4377
:103440009847069880B28619B6B2109600260B905F
:1034500006960496129AF3B2934255D2099B0798A6
:103460009BB20F9333186B430F99109ACB189BB2F2
:103470001393089200270698FBB20C991A18D2B23F
:103480008B423BD2510707D1059B0598119A013316
:10349000125C9BB204920593049843B2002B22DA8B
:1034A0002068012D11D10D9A0B9B51B259180E9B1A
:1034B00079185AB20F9B09B29A188369B2189C46C0
:1034C00012B2201C0A9BE0470DE0089A139B11B230
:1034D0001BB20A9A03932BB200930192C269201C7B
:1034E0009446039AE047049808994300DBB204939A
:1034F0004B199BB201370893BFB2BCE74318DBB24C
:1035000001360693B6B2A5E72368201CDB6A98470C
:1035100015B0F0BD68130100F0B5C26987B0041C96
:103520000B1C002A28D10A2903D1037E0282DB006A
:1035300029E00D2968D0817E007E00290DD010255C
:10354000615F062545434D190C26A15F8D4204DDC0
:10355000618A2282C200521862821225625FA58AA5
:1035600002900095E58A1027E15F0195201CFFF786
:1035700081FE227E062343E00A2908D1002303822C
:10358000927A037E5343628A9B1863823CE00D2942
:103590003AD0157AA94237D3517A994234D35D1B78
:1035A0005668ED00AD19A978E878002926D00028E2
:1035B00024D06F79A67E0597207E002E12D010278A
:1035C000E65FB446059E77B2791841430C27E65F63
:1035D0006144B14206DD00212182927A618A424330
:1035E000521862821022A15E1226A25FA68A029061
:1035F0000096E68A201C0196FFF73CFE2A79237E7E
:103600005343228A9B182382012007B0F0BD018218
:1036100042827047002900D1012101767047C182A2
:10362000818270478182C282704737B506AC258897
:10363000046800930195E4690123A04737BD73B581
:1036400006AC25880126046800960195E469A04728
:1036500073BDF0B585B003930AAB1F880368041CE3
:103660005B690E1C151C9847236800971F6A201C75
:10367000311C2A1C039BB8472368201CDB6A98472F
:1036800005B0F0BDF0B585B003930AAB1F880368A1
:10369000041C5B690E1C151C9847236800975F6A21
:1036A000201C311C2A1C039BB8472368201CDB6AA2
:1036B000984705B0F0BDF0B585B003930AAB029210
:1036C00000229F5E0BAB1E880368041C5B690D1C07
:1036D0009847236800970196DE69201C291C029AEE
:1036E000039BB0472368201CDB6A984705B0F0BDF8
:1036F00008B5036D026E19680A431A60436B002B0C
:1037000002DA006AFFF794FA08BD0000426B13B5B5
:10371000041C002A0DDA616A094B006A994200D93B
:10372000191C6A46002353711371019A0091FFF727
:1037300063FA236D216E1A688A431A6013BDC0466E
:10374000001BB700F7B50025019308AB5D570026B5
:1037500009AB9E5709B20AAB12B20027041CDF570F
:10376000FFF730FC1E4B221C083323606832002315
:103770001370537002321380538027631827E66258
:1037800001227E4352426263A263E263154A0198BA
:10379000B15620621448C901E3650818636596199B
:1037A000A365A562636271680190E0640120061C54
:1037B0008E40A3642364636466669D420ADB7D4396
:1037C000AB56094EDB019B19551923656B68984070
:1037D000206602E0019823662065201CFEBDC046DD
:1037E00068180100D01B01001000006010B5041C17
:1037F0004162806A002806DB012105F077FCA06A9F
:10380000012105F0CDFCE06A012105F06FFCE06AC2
:10381000002105F0C5FC636B002B15DBA06B0121BB
:1038200005F064FCA06B002105F0BAFC606B01217F
:1038300005F05CFC606B012105F0B2FCE06B002838
:1038400002DB002105F052FC636B002B02DA206AD8
:10385000FFF7A2F9206B002817DB012105F046FCD9
:103860000121206B05F09CFC642005F023F9002168
:10387000206B05F095FC642005F01CF9206B0121FC
:1038800005F08EFCC82005F015F910BDF8B5436BA6
:10389000002B03DA006AFFF7DDF919E0836C0824D6
:1038A0008025026C294203D0466D17683E4302E032
:1038B000476D1668BE431660C66D1A68013CB24378
:1038C0001A60C26D1E686D0832431A60002CE8D180
:1038D000F8BD426B38B50B12CDB2041CD9B2002A28
:1038E00007DA006AFFF7B6F9206A291CFFF7B2F978
:1038F00005E0FFF7CBFF201C291CFFF7C7FF38BDF1
:1039000073B5041C1D1C002915DB0C20235E8B42A3
:1039100011DD002A0FDB0E20235E93420BDD2068B1
:103920000123009389B2466D92B2201CB047201C3F
:10393000291CFFF7CEFF73BDF7B5041C0E1C151C28
:103940001F1C00291CDB0C22835E8B4218DD002D1E
:1039500016DB0E22835EAB4212DD03685B6998477B
:10396000012320680093AAB2B1B2456D201CA8477C
:10397000201C391CFFF7ADFF2368201CDB6A984729
:10398000F7BD10B5041CE36C406E1A6882431A60E0
:10399000201CFFF77BFFE36C626E19680A431A6014
:1039A00010BD38B50368041C5B690D1C9847231CC7
:1039B000002D01D0683300E069331978201CFFF72F
:1039C000E0FF2368201CDB6A984738BDF8B5041C6B
:1039D000002A1DD0436B0E0ACFB2151C002B0BDB47
:1039E000201C311CFFF752FF013D201C391CFFF742
:1039F0004DFF002DF4D10BE0151C311C206AFFF7A0
:103A000029F9013D206A391CFFF724F9002DF4D172
:103A1000F8BDF0B589B01D1C0EAB041C00201E5E65
:103A20000FAB1B880793A3891FB203930597B94275
:103A300038DAE08903B2049006939A4232DA4B19DD
:103A40009BB2181C97190138BFB29C4600B27B1E6E
:103A50009BB2002826DB1BB2002B23DB002902DAF5
:103A600061460DB20021002A01DA3EB20022059F14
:103A7000B84202DB0398451A2DB2069FBB4202DB17
:103A80000498861A36B22068B7B2009789B292B20B
:103A9000476DABB2201CB847321C6A43201C079903
:103AA000FFF794FF09B0F0BD38B503680D1C5B69E2
:103AB000041C98476B426B412121C91A201CFFF757
:103AC00060FF2368201CDB6A984738BDF8B5051CE9
:103AD0006E35041C29701D49FFF788FE2368201CE1
:103AE0005B6998472B780B2B01D1194D06E0194DD6
:103AF00004E00520784304F0DDFF351C2978002917
:103B000019D0FF2902D0201CFFF73BFF6B787F27DD
:103B10001F405BB2AE1C002BEBDB351CF319D9B296
:103B2000EAB2914205D02978201CFFF7AFFE01359B
:103B3000F4E71E1CE1E72368201CDB6A9847A023FA
:103B40005B00A381F0235B00E381F8BD00366E01CA
:103B5000281901007519010038B503231940F02216
:103B6000A023041C41765B00520002290BD00329DC
:103B70000DD0012903D08381C281C0250AE0828152
:103B8000C381A02506E08381C281002502E08281F5
:103B9000C38160252368201C5B699847201C36215F
:103BA000FFF7EFFE291C201CFFF770FE2368201C86
:103BB000DB6A984738BDF7B5151C08AA12885F1E46
:103BC000531EEB180E1C9BB2041CCF192A21019323
:103BD000FFF7D7FE636B3112BFB2F6B2C9B2002B4A
:103BE00007DA206AFFF736F8206A311CFFF732F84F
:103BF00006E0201CFFF74AFE201C311CFFF746FEA2
:103C0000636B3912C9B2FFB2002B07DA206AFFF7E3
:103C100021F8206A391CFFF71DF806E0201CFFF789
:103C200035FE201C391CFFF731FE2B21201CFFF72D
:103C3000A8FE636B2912C9B2EDB2002B07DA206A25
:103C4000FFF708F8206A291CFFF704F806E0201C9B
:103C5000FFF71CFE201C291CFFF718FE019B191200
:103C6000DDB2636BC9B2002B07DA206AFEF7F2FF00
:103C7000206A291CFEF7EEFF06E0201CFFF706FE77
:103C8000201C291CFFF702FE201C2C21FFF779FEC7
:103C9000F7BD000030B585B0041C08A80578009178
:103CA0000192A021F0220293201C099B490052009E
:103CB000FFF748FD044B201C08332360231C6E33A0
:103CC0001D7005B030BDC046C8180100014B083357
:103CD00003607047C8180100FF230170C370837030
:103CE0004370704708B5032141564B1C04D1002195
:103CF0000548FEF7AFFF05E08078012240B205F0ED
:103D0000F9FAC0B208BDC0469402002008B50B1CE9
:103D1000032141564A1C04D1191C0548FEF79AFF9D
:103D200004E04078012240B205F005FB08BDC04622
:103D300094020020034B044A1A6000225A711A713F
:103D40007047C046A402002000093D00F8B50023DA
:103D5000C356041C0F1C161C013310D1194D0179D8
:103D6000281C00F0FDF9391C281C00F052FA281C10
:103D7000311C00F04EFA281C00F0A9FA21E00323C0
:103D8000C356013304D1104B104806CBFEF734FF65
:103D900000202056002105F003FA201C391CFFF7F3
:103DA000B5FF201C311CFFF7B1FF00202056012178
:103DB00005F0F6F90323E356013302D10348FEF779
:103DC00037FFF8BDAC020020A402002094020020BE
:103DD00070B50023C356041C0E1C01331CD1234DA7
:103DE0000179281C00F0BCF9311C281C00F011FAE4
:103DF000281C00F06CFA2179281C00F0B1F9217917
:103E00000122281C00F000FA281C00F065FAC6B256
:103E1000281C00F05CFA26E00323C356013304D1CA
:103E2000134B144806CBFEF7E7FE00202056002176
:103E300005F0B6F980213143201CFFF767FF002110
:103E4000201CFFF763FF201CFFF74CFF061C00201F
:103E50002056012105F0A4F90323E356013302D1D2
:103E60000448FEF7E5FE301C70BDC046AC020020E1
:103E7000A40200209402002008B54021FFF7A8FF0B
:103E8000C0B2C00908BD08B54B21FFF7A1FF8006ED
:103E9000C00F08BD38B50021041CFFF799FF0121B0
:103EA000051C201CFFF794FF2D02ADB2284380B201
:103EB00038BD000038B5041C002020560D1C421CE3
:103EC0002BD00323E3565A1C13D1012105F00EF920
:103ED00000202056012105F063F94B48FEF75CFEF7
:103EE0004A4B4B4A1A6000221A715A710223A3608E
:103EF00017E0181C012105F0F9F8002020560121D7
:103F000005F0F4F801202056012105F0EFF8022019
:103F10002056002105F0EAF803E03E4800F000F9E1
:103F20002571201CFFF7B6FF3B4DA84209D1201C8C
:103F300003210222FFF70AFF0A2004F0BBFD00253F
:103F400017E00023E356013301D100205BE0032397
:103F5000E3560133F9D12D4B2D4A201C1A60012262
:103F60001A7100225A71A260FFF794FFA842ECD1A7
:103F7000DDE7291C0135201CEDB2FFF729FF412D9B
:103F8000F7D1201C04210022FFF7E0FE201C402175
:103F90000122FFF7DBFE201C0A210122FFF7D6FEDB
:103FA000201C20216022FFF7D1FE201C21210222AB
:103FB000FFF7CCFE201C291CA422FFF7C7FE201C03
:103FC00056210622FFF7C2FE201C4A210122FFF7DC
:103FD000BDFE201C4B210122FFF7B8FE201C4B2107
:103FE0000022FFF7B3FE201C58210122FFF7AEFE8E
:103FF000201C0B21FF22FFF7A9FE201C092105220E
:10400000FFF7A4FE012038BD94020020A402002086
:1040100040420F00AC02002011080000F0B585B04E
:10402000051C0F1C161C01930024281CD721FFF728
:10403000CFFE03ABE0540134042CF6D15A78197842
:1040400010110901014339800F210A4099781202A9
:104050000A433280DB78019A281C1370FFF713FFA4
:10406000002804D0281C0B21FF22FFF76FFE05B0AB
:10407000F0BDF8B5051C0F1C161C0024B44208D076
:104080002B68395D1B68281C9847002801D0013433
:10409000F4E7201CF8BD7047031CFC33196ADA6989
:1040A000914203D01B6AC018007E01E0012040420B
:1040B0007047031CFC33D8691B6AC01A01D5013054
:1040C000FF307047F7B50193FA239B008360134BD1
:1040D0008026002576000833041C0F1C4560291C2F
:1040E00000920360321C18300AF008F8231C90225A
:1040F000FC335200DD61A0181D62321C291C09F03E
:10410000FDFF87229200A3185D60019A9D60009BCD
:104110002761A575201C23756275FEBDE01901009D
:1041200070B50D49041C006905F004FD206905F017
:1041300091FB1826207D331C4343084D0821EB18C2
:10414000595605F075F8607D08214643AD1969564A
:1041500005F06EF870BDC046A0860100D01B0100BE
:104160008A2387229B009200C154831800225A6040
:104170009A60012383757047031CFC335A6810B59D
:1041800001329C68D2B2A24202D05C6801555A60EA
:1041900010BDF7B501930023041C151C181C9A428E
:1041A00031D0221CFC32D36120691362012205F058
:1041B0008DFB002825D0206905F0F7FB271C183758
:1041C000011C381CFFF7D8FF01262069AE420ED033
:1041D00005F05CFB0221206905F062FB206905F017
:1041E000E4FB011C381CFFF7C7FF0136EDE705F0C3
:1041F00045FB019B002B05D02069032105F050FBF6
:1042000000E0051CE8B2FEBD08B50123FFF7C1FFC1
:1042100008BD10B5827D00239A420DD08724A400EA
:104220000219546892680134E4B2944204D02130F7
:10423000FF30FFF7A1FF0123181C10BD031CFC3346
:1042400099685A68914206D09A68805C9A680132EF
:10425000D2B29A6001E001204042704770B500225E
:104260008A2382759B00041C0E1CC15C006905F04A
:104270002DFB002805D12069032105F011FB022543
:1042800023E090235B00E01887239B00E21851682D
:104290009368CB1A01D50133FF33002B0ED025696B
:1042A000FFF7CCFFC1B2281C05F03FFB0028E8D186
:1042B0002069032105F0F4FA032506E01D1C002EF9
:1042C00003D02069032105F0EBFA281C70BD08B566
:1042D0000121FFF7C3FF08BD08B51830FFF7AEFF97
:1042E00008BD38B5041C006905F03DFB002800D16D
:1042F00084E0206905F045FB00280ED1206905F017
:104300004AFB00281FD0206905F040FB00281AD086
:10431000206905F045FB002815D1206905F0B6FAA3
:104320002069032105F0BCFA8C239B00E558002D81
:1043300004D02368201C1B699847A847FC3400233D
:10434000E36123625AE0206905F025FB031C206924
:10435000002B19D005F09AFA2069032105F0A0FA84
:10436000206905F01DFB002848D087229200A31881
:1043700000225A609A600123A3758B239B00E358A7
:1043800093423BD0984739E005F0F6FA002835D043
:10439000206905F005FB002816D087239B00E21852
:1043A00051689368CB1A01D50133FF33FF21002BED
:1043B00005D090225200A018FFF740FFC1B220693B
:1043C00005F0C4FAA07519E0231CFC33DA691B6AF6
:1043D0000132D2B220699A4202D105F04FFA09E0C7
:1043E00005F0E3FA011C201C1830FFF7C5FE206918
:1043F00005F04CFA2069032105F052FA38BD00009F
:1044000008B50248FFF76DFF08BDC046AC020020AA
:1044100008B50348034914221523FFF753FE08BDCE
:10442000AC020020240B0020014B19627047C046EB
:10443000E804002008B503F057F808BD10B5064C95
:1044400002A82170054900780A70054A40B213702D
:10445000044B187010BDC046380000203500002005
:10446000360000203700002030B587B0041C00F073
:104470004BFD2F4B6846009301F0D2F9051E0AD080
:10448000031C0D3307D0031C10334ED0002106202F
:1044900001F093F845E002F0B9FA2649264802F007
:1044A000D1FA211C00230122293122600B702361E3
:1044B0006361A36123626362204BE2611A68204B4F
:1044C0009A4202D91F4801F08CF80121042001F022
:1044D00074F80121052001F070F80121062001F097
:1044E0006CF80121042001F054F80121052001F0AD
:1044F00050F80121062001F04CF80120011C01F0C8
:104500005CF80121022001F058F80121032001F09C
:1045100054F80120011C01F03CF80220012101F0B7
:1045200038F80320012101F034F8281C07B030BD11
:10453000514A000029440000354400009C05002039
:104540004F130000FF0300000368F7B5041C002BA5
:1045500001D1FFF789FFE369002B03D0002323611A
:104560006361A36101F098F9251C2935002802DA5E
:10457000042028702AE00023271C2B7028370123F1
:104580003B7004F091FA01902E7807231E4006D16B
:1045900004F08AFA019BC01A0D4B984212D9201CD4
:1045A00021224D30002109F0A9FD2A780323134070
:1045B00001D13B7004E001F085FA002001F068F9B8
:1045C000287803E0301C01F063F9DDE7FEBDC0464A
:1045D0005FEA0000F0B5171C026885B0041C0E1CD1
:1045E0001D1C002A01D1FFF73FFFE369002B03D018
:1045F000002323616361A361301C09F06BFEFF237C
:10460000C1B20093301C2B1C3A1C01F0D7F9251CB9
:104610002935002802DA042028702EE00023221C0D
:104620002B70283201231370029204F03DFA03909C
:104630002F7807231F4006D104F036FA039BC01AD7
:104640000F4B984215D92A780323134001D1029ABF
:1046500013704D3400212122201C09F04FFD301C25
:1046600009F038FE311C021C201C09F025FD2878B9
:1046700003E0381C01F00CF9DAE705B0F0BDC046E4
:104680005FEA000008B5131C0222FFF7A3FF08BD74
:10469000F0B5171C0268A5B0041C00911D1C002A6F
:1046A00001D1FFF7E1FE8822002102A809F026FDD2
:1046B000009902A809F006FE6B460A33DD77012552
:1046C0003D331D70002612AB49221E706A44C02380
:1046D00013706B464A33A8221A705D70391C13ABF5
:1046E00002A82A1C1D7001F0A3F9271C2937B0422B
:1046F00002DA0B20387028E00A233B70231C283391
:1047000002221A702533181C311C2122019309F052
:10471000F5FC009809F0DEFD0099021C019809F0F3
:10472000CBFC201C694610304931042200F0B8FC53
:10473000074B22696361A261311C042000F03DFF38
:10474000281C311C00F039FF387825B0F0BDC04678
:10475000FFFFFF0013B5081C0C1C01F044F968466C
:1047600001F041F9002300A8C11849795A42013BE0
:10477000A1549A1DF7D1201C16BD000070B5031C72
:1047800028331B78041C002B15D00025002001F0D5
:104790007FF8256201F01BF9A8420FDB04F084F9D1
:1047A000061C256A002D0BD104F07EF9094B801BF5
:1047B000984209D904E06420404209E0281C07E03F
:1047C0000023206A236203E0281C01F061F8E8E777
:1047D00070BDC046E7030000036810B5041C002B41
:1047E00001D1FFF741FE2934002001F051F8207873
:1047F00010BD000030B587B0041C0D1CFFF7A4FEEF
:10480000032810D06946201CFFF7A4FF69464A78A8
:104810000B7802A8064909F033FD201C02A9054ABD
:104820002B1CFFF735FF201CFFF7D6FF07B030BD6C
:10483000171A0100281A010008B50121FFF7DAFF55
:1048400008BD0000F0B5041C85B0151C132900D16B
:10485000AFE00FD8062900D1D9E005D8042900D04F
:10486000F2E00023D356EEE009296ED0112900D1E1
:104870009BE0E9E02A2909D003D81B2900D1DAE01E
:10488000E2E02C290AD0322949D0DDE00023D356BA
:10489000002B00D1D8E02934062315E01378012B32
:1048A00014D1031C28331B78012B08D1C1690029BE
:1048B00000D0C9E029340323237004202CE0032B0B
:1048C00000D0C1E0293408232370BDE0002B00D0C4
:1048D000BAE0021C28321278012A12D1021CC069E7
:1048E000062129321170002802D023616361A3617F
:1048F000002461B25548013402F054FC0B2CF8D16D
:1049000004E0032A02D12934072323700121042063
:1049100000F053FE0120011C00F04FFE94E0031C48
:1049200028331E78012E00D08EE0EB6812686D6887
:10493000436129340323026185610021237004202F
:1049400000F03BFE301C0021E6E7131C63331E78A9
:10495000002E23D1071C4D37311C2122381C09F0B1
:10496000CDFB281C09F0B6FC291C021C381C09F0E0
:10497000A3FB231C283301221A70281C26616661C0
:10498000A66109F0A7FC2B1CC1B26233FF201A7884
:104990000090413B281C01F011F855E0031C29331D
:1049A0000B221A70FFF748FF4EE01378002B4BD014
:1049B00021E0101C0A30039009F08CFC261C2A36DA
:1049C000071C0021301C212209F098FBBBB2002BF0
:1049D00004D01A1C301C039909F06EFB626A05238F
:1049E000002A0BD10123EB562362AA78231C4B33F8
:1049F0001A70EA785A702934022365E7EA181179A7
:104A0000606A0522D21A8154013BF7D2EAE7426A72
:104A1000002A0AD06B1825331A78606A06235B1ABD
:104A20000139C2540029F5D16162201C291C4D3086
:104A300009F048FC08E0006A002805D0111C082293
:104A400009F03AFB0023236205B0F0BDB005002059
:104A500008B5031C0A1C0248191CFFF7F3FE08BD29
:104A6000E8040020F7B5061C101C0F1C019204F08E
:104A7000BFFC0124051E39D1291C052000F09DFD35
:104A80000220291C00F099FD3562381C02F084F9DF
:104A9000002809DA211C052000F08FFD211C0220CE
:104AA00000F08BFD2C1C21E003F0FEFF051C346A96
:104AB000002C05D103F0F8FF0D4B401B984211D993
:104AC0000121052000F079FD0121022000F075FD93
:104AD000316A0024A14209D0019804F0AFFC34628D
:104AE000012403E0201C00F0D3FEE0E7201CFEBD03
:104AF0001F4E000008B50220012100F083FF08BD11
:104B000013B50024211C221C231C0094064804F029
:104B100059FC064BFF211A1C283214701A1C29322A
:104B200011701C6013BDC046E0040020E8040020A2
:104B300013B502686B46D97107335468191C0122FA
:104B4000A04716BD13B503686C4607345B6A211C89
:104B500001229847012801D1207801E0012040423C
:104B600016BD7047007C40B20130431E9841C0B270
:104B70007047000010B510214156041C002904DBC9
:104B8000024802F00FFBFF23237410BDB005002084
:104B900008B51021415600204B1C02D0014802F0FC
:104BA000A4FA08BDB0050020036870B51B69041C99
:104BB0000E1C151C984780B2002807D010216156A2
:104BC000321C2B1C034802F090FB01E00120404204
:104BD00070BDC046B0050020036810B51B69041CF9
:104BE0009847002805D010216156034802F04EFB7B
:104BF00001E00120404210BDB005002008B51021A1
:104C00004156002903DB034802F060FA00E000206F
:104C100008BDC046B005002013B510228A56041CFA
:104C2000531C06D100230093191C1A1C04F0CAFB64
:104C300002E0024902F070FA201C16BDB005002007
:104C400070B510214156051C00204B1C0DD0074C9F
:104C5000201C02F06BFA1021061C6956201C02F081
:104C600065FA36020012304380B270BDB0050020F4
:104C700070B5037C041C0E1C151C7F2B06D8002A63
:104C800004D00368DB6A9847002803D101236360DE
:104C9000002009E0102161560448321C2B1C02F050
:104CA0004BFA0028F2DD281C70BDC046B00500207C
:104CB00000234360FA239B008360034B08330360A7
:104CC000FF2303747047C046301A0100F0B589B065
:104CD00004AD039302232B804968036852BA6A80AB
:104CE0006960DB6A041C9847002803D02368201CF5
:104CF0009B6A9847184E0221301C0122039B02F048
:104D000089F9071C207423D4039BDB070ED50E9B67
:104D1000002B0BD0181C00F0D4F90E9B022200933C
:104D20000190391C301C131C02F085F910212A1C3B
:104D30006156301C102302F08BF9051C0120002D58
:104D400007D110216156301C02F02CFAFF23237486
:104D5000002009B0F0BDC046B00500201FB5064BCD
:104D60004968029300230391009302A90123FFF7EE
:104D7000ADFF05B000BDC046002201001FB5054BC8
:104D80004968029300230391009302A9FFF79EFF55
:104D900005B000BD00220100F0B587B00C1C071C57
:104DA00002A8161C1D1C04F005FB0A48211C02AABF
:104DB000FFF758FE00280AD0074B00940493039B8A
:104DC000381C059304A9321C2B1CFFF77FFF07B08A
:104DD000F0BDC046E80400200022010008B5012310
:104DE000FFF7DAFF08BD08B50023FFF7D5FF08BDC0
:104DF00007B5002300930348191C1A1C04F0E2FABB
:104E000007BDC0465805002007B50023009303489E
:104E1000191C1A1C04F0D6FA07BDC0466005002014
:104E200007B5002300930348191C1A1C04F0CAFAA2
:104E300007BDC0466805002007B54968034B0191CE
:104E400069460093FFF78AFF0EBDC04600220100AD
:104E500008B5FFF7C3FF08BD10B5041CFFF728FF16
:104E6000024B201C0833236010BDC046781A010095
:104E700007B5002300930348191C1A1C04F0A2FA7A
:104E800007BDC0467005002007B500230093034806
:104E9000191C1A1C04F096FA07BDC04678050020BC
:104EA00008B5034B1B68002B00D0984708BDC046CF
:104EB0008005002008B503F0CFFE08BD08B503F05B
:104EC00085FF08BD10B5041C002C04D0012003F0A0
:104ED000F1FD013CF8E710BD10B50A4C002020564A
:104EE00000280DDB002104F05BF96420FFF7EAFFE6
:104EF00000202056012104F053F96420FFF7E2FF5F
:104F000010BDC0463600002010B5114B0022114CD8
:104F10001A6000202056904207DB012104F0E6F8D9
:104F200000202056012104F03BF90B4B00201856BD
:104F3000002104F0DBF8094B00201856002802DBA2
:104F4000022104F0D3F8FFF7C7FF002010BDC046D0
:104F500080050020360000203500002037000020AA
:104F600008B5054B05491860054B0020185603226B
:104F7000FFF7A0FF08BDC04680050020A14E00003D
:104F80003500002008B5074B002806D00020185631
:104F900005490322FFF78EFF03E000201856FFF7B4
:104FA0008DFF08BD35000020A14E000010B50A4855
:104FB000FDF7F2FD094C00202056012104F096F87F
:104FC00000202056012104F0EBF8FFF785FF0120B7
:104FD000FFF778FF002010BD940200203800002069
:104FE000F0B585B003283DD16B460C680F33002225
:104FF0000E894D681A70944206D0954230D1012135
:10500000019500911D1C03E00122009401921C1CDB
:10501000164F174B381C06CBFDF7EEFD154B002045
:105020001856002104F0BCF8002E0FD02178381C4F
:10503000FDF710FE009928704B424B410199013E4B
:10504000ED184B424B41B6B2E418EDE7094A002097
:105050001056012104F0A4F8381CFDF7E9FD02E028
:10506000FA2600E0FF2670B205B0F0BD94020020E1
:10507000840500203800002008B50248FDF7B4FD83
:10508000002008BD94020020034B044A1A6000224D
:105090005A711A717047C04684050020001BB70082
:1050A00010B500239A4203D0CC5CC4540133F9E715
:1050B00010BD8318002A03D0017001309842FBD143
:1050C0007047021C031C1978981A80B2002901D07D
:1050D0000133F8E770470000024BDA780132D2B2B0
:1050E000DA707047D01100207047000007B50B4AF6
:1050F000002313700A4A01209370FFF743FF094809
:1051000001A900F019FF002806D1019B02211943D3
:105110000448019100F014FF40B20EBD8C05002040
:10512000D01100207010000010B50B4C0020A378A7
:1051300083420FD16378834205D063780020013326
:10514000DBB2637006E02378002BF6D000F089FD17
:105150000028F2D040B210BDD0110020014B1870D1
:105160007047C046D0110020044B5A78002A03D063
:105170005A78013AD2B25A7000207047D0110020FC
:1051800008B5094B5A78002A03D05A78013AD2B2AE
:105190005A705A780020824204D11B78834201D091
:1051A00000F030FD40B208BDD011002010B5064C13
:1051B0000021201C2822FFF77CFF0448FFF7D0FEC7
:1051C000034B0020E36110BDD0110020D950000036
:1051D000E9500000F0B58BB01D1C10AB0F1C02CBCA
:1051E00002921B887F22019312AB1B883A400393E3
:1051F00006AB5A70082218705A80061C5A8800297B
:1052000004D001998A1803998A1800E0AA1892B26A
:105210005A80FFF789FF031C002B00D095E06A46F7
:105220000893D3820793079B3F021E430796079B71
:1052300006AE1F430797079A738845481B0413431C
:105240000793079900F07CFE041E00D07AE00790D7
:10525000079B02221343079307993E4800F070FE14
:10526000041E6FD16B460890D8826C461634228893
:10527000394B9A4205D8374807A900F05DFE00284F
:1052800003D0089B002B1BD158E0F4232288FF3366
:105290009A4203D901202388FFF714FE079F0223B7
:1052A0001F4007D12D4808A900F046FE041EE8D093
:1052B000089747E06B46DA8A013292B2DA82D4E785
:1052C000089B311C0993738808229BB2738009984C
:1052D00000F05AFE041E35D1099B02990833099348
:1052E000002908D009982A1C00F04EFE041E29D17E
:1052F000099BEB180993109A002A0FD00399099B78
:105300004D1BED180995111C0998019A00F03CFEFF
:10531000041E17D1099B019AD3180993089B0222F6
:105320009B000793079B0E4813430793079900F0D0
:1053300007FE041E06D1FFF723FF06E0FFF720FF5C
:10534000FD2002E0FFF710FF201C40B20BB0F0BDC3
:105350008C10000078100000E70300000004150026
:105360006C100000F0B5534B87B01A78002A04D1B6
:10537000514BDA781D1C002A01D1002696E0DA781C
:10538000013AD2B2DA704D4803A900F0D5FD061EED
:1053900000D083E0039B0122134200D17EE0FFF79F
:1053A000F1FD039B0122934303930399434800F0CB
:1053B000C7FD061E72D10123AB70039BFE269B0422
:1053C0001B0D01936AD0059005A93D4800F0B4FD7E
:1053D000071E0ED1019A059804AC6860211CAA60D2
:1053E000042200F0B1FD6388071C9BB2061C638099
:1053F00003D00120FFF7C6FD4FE06388019A934276
:1054000008D06388D31A042B04DD0120FFF7BAFD0E
:10541000FA2742E02378012B04D1EB68002B31D02E
:10542000EB6827E02378022B04D12B69002B29D0CD
:105430002B691FE02378042B04D16B69002B21D04A
:105440006B6917E02378062B04D12B6A002B19D047
:105450002B6A0FE02378072B04D1AB69002B11D006
:10546000AB6907E02378FA27052B16D16B6A002B6E
:1054700008D06B6A60786188059A0839C0B289B231
:10548000083298470B4A1378002B07D1AB78002BD2
:1054900004D0FFF72BFE071E00D03E1C054A1378F0
:1054A000002B03D1002E00D06DE761E770B207B08A
:1054B000F0BDC0468C050020D01100207010000007
:1054C00084100000F8B51D1C002803D0002901D06D
:1054D000002A02D1002D18D11AE00F4CA3689A427D
:1054E00016D86368984213D36368A7688618FB18B8
:1054F0009E420DD800F028FD00280AD16368A268FA
:10550000D318B34201D0002D03D0FFF7EFFD00E028
:10551000F42040B2F8BDC046D0110020013800B5DB
:10552000F423062814D80B4B05F0C0FF06040A0824
:10553000100C0E0019610AE0D96008E0596106E01C
:10554000D96104E0196202E0996100E05962002328
:1055500058B200BDD0110020062815D80F2304280A
:1055600015D01023052812D0122306280FD00323AC
:1055700000280CD00423012809D00523022806D0D6
:10558000032803D1062302E0FF2300E0FE2358B2E4
:10559000704738B5051C0C1CFFF7C6FD00280AD162
:1055A000281CFFF7D9FF002803DBC0B2211C00F044
:1055B00045FCFFF7E5FD40B238BD38B5051C0C1CB5
:1055C000FFF7B2FD00280AD1281CFFF7C5FF00280D
:1055D00003DBC0B2211C00F04BFCFFF7D1FD40B251
:1055E00038BD7FB5002305900520009301930293F9
:1055F000011C05AA0423FFF7EDFD07B000BD000064
:1056000070B5041C9AB0151C2C287BD01B2804D123
:10561000101C01A90822002384E0062803D1101CD5
:1056200001A930227DE00E2800D1A1E0322815D159
:10563000504B10221968504B994200D91422281C53
:1056400001A90023FFF73EFF002800D090E04B4B5C
:105650001B68002B00D18BE032206CE02F2808D192
:1056600001A800216422FFF724FD281C01A964225F
:10567000D1E734280DD1101C01A904220023FFF723
:1056800021FF011E74D13D4B1B68002B70D0201CE4
:105690006DE0112814D13A4A002301AC1370281C84
:1056A000211C0422FFF70EFF002861D1354B227820
:1056B0001A70324B1B68002B5AD01120211C56E067
:1056C00013280DD1101C01A92C220023FFF7FAFE8C
:1056D00000284DD1294B1B68002B49D013202AE00C
:1056E00004280DD1101C01A904220023FFF7EAFEB3
:1056F00000283DD1214B1B68002B39D004201AE033
:10570000652803D1281C01A9042284E7092803D1B4
:10571000101C01A9642204E02A280ED1101C01A942
:1057200004220123FFF7CEFE002821D1134B1B6872
:10573000002B1DD0201C01A919E0202818D101AE92
:10574000101C311C08220023FFF7BCFE00280FD1DB
:10575000281C0830B28801990123FFF7B3FE002806
:1057600006D1064B1B68002B02D0201C311C984729
:105770001AB070BD9C0500204F130000900500205A
:10578000940500209505002010B5041E3BD0FFF7BE
:1057900098FC002837D0201CFFF793FC202832D833
:1057A000A31CDB7F013B0D2B2DD8231C41331B7821
:1057B000002B09D1231C42331B78002B04D1231C5E
:1057C00043331B78002B1ED0231C3F331B78012B47
:1057D00001D1002021E0032B17D1E31CDB7F013B2B
:1057E000032B10D8231DDB7F102293430A2B0AD1F1
:1057F0002434201CFFF765FC002804D0201CFFF790
:1058000060FC1A28E5D9F42007E0022BFBD1043410
:10581000E37F083B382BDCD9F5E740B210BD000030
:1058200070B58CB06B460126DE710733002824D09A
:105830000168144A00251160134A181C157000F005
:1058400073FC041EAC4219D1FFF7B0FC041EAC423D
:105850000FD10E49301CFFF761FE02A800F00AFCD0
:10586000031C041C0C3309D102A800F0ADFB041C7E
:1058700004E0281C00F090FC00E0F42460B20CB0BE
:1058800070BDC04690050020940500200156000020
:1058900008B5FFF767FD08BD1FB50023009301930E
:1058A000029329211A1C0120FFF794FC05B000BDCA
:1058B000F0B5A5B01C1C2AAB1B88069005932BAB3A
:1058C0001B780F1C161C0793012A03D17B1E1F2B6C
:1058D0001BD901E0002C01D1F4206CE0022AF5D1A3
:1058E000201CFFF7EEFB4028F0D10023E25C111CE6
:1058F00030393629F0D80A390629EDD9473A192A1C
:10590000EAD90133402BF1D1E0E7059B013B0D2B98
:1059100002D90599FF29DFD109AD68463A1C6A30E2
:10592000EF190699FFF7BCFB3B1C403300279F7122
:10593000059A6B462A33DA87079A531E9A416B46BB
:105940008B331A70263B1E70032E13D123782B70D5
:10595000032BC1D862781023111C6A7099430A295D
:10596000BAD16846A11C2630FFF79AFB6378EB1882
:105970009F7016E0022E0AD1201CFFF7A2FB431EE7
:105980009BB23F2BA8D8421C211C281C04E0042EEB
:1059900005D1281C211C3E22FFF782FB01E0012ECD
:1059A0009AD10023009301930293012028212A1CFD
:1059B0006C23FFF70FFC40B225B0F0BD13B504AC6B
:1059C0002488009400240194FFF772FF16BD1FB5D0
:1059D000002300930193029303211A1C0120FFF777
:1059E000F9FB05B000BD10B5041CFFF79DFB0028B6
:1059F00006D1201C00F056FA002801D1FFF7C0FBA9
:105A000040B210BD30B587B005AA002310705170A8
:105A1000041C0093019302932D2104230120FFF71E
:105A2000D9FB051C201CFFF799FB281C07B030BDD3
:105A3000F0B5051CB9B00C1C161C002837D0FFF7B8
:105A4000A3FE071CF420002F32D105A8291C8822B0
:105A5000FFF726FB201CFFF734FB002827D0002C83
:105A600025D027AD211C4022281CFFF719FB37AB9E
:105A70001E70114B114A1F70114B1968CC239142B3
:105A80000BD86B461633DA7F17A8013ADA77211C58
:105A90004022FFF705FB2E708A230022009201921C
:105AA0000292882105AA0120FFF794FB00E0F42070
:105AB00040B239B0F0BDC046940500204F1300003D
:105AC0009C0500201FB5002300930193029305213C
:105AD0001A1C0120FFF77EFB05B000BD13B5802422
:105AE00064000443A520211C400100F029FAA520F0
:105AF0000023400101A9019300F01EFA0028F1D112
:105B0000019BA342EED116BD07B50023114801A9A0
:105B1000019300F011FA002819D1019B802149005E
:105B200019430C48019100F00BFA00280FD1D02046
:105B3000400101A900F000FA002808D1019B802152
:105B40004902D02019434001019100F0F9F940B217
:105B50000EBDC04608140000F7B5214D2E682C1C60
:105B6000002E3AD180204001291C00F0E5F9071EE3
:105B700027D11C4801A900F0DFF9061E01D02F60D3
:105B800029E02B68184A934204D1019A012A1AD0BD
:105B9000164B08E0164A934209D1019B032B12D001
:105BA000042B02D1134B23600DE0134BFBE7134A88
:105BB000934208D1EC208003291C00F0BDF9002895
:105BC00001D02E6007E022680D4B1340A022D202C4
:105BD0001343236001E0002000E02068FEBDC046C2
:105BE00098050020F4130000A0021000A10210008C
:105BF000B0021000B1021000B2021000F00010005C
:105C0000FFFFF0FF13B5102001A900F095F900285F
:105C100025D1019B01242342F5D1201C01A900F0CC
:105C20008BF900281BD101990223194206D10B20C0
:105C300001A900F081F9002808D010E09943201C48
:105C4000019100F07DF90028F1D008E001990123CD
:105C5000194204D099430B20019100F071F940B230
:105C600016BD37B500230B2069460093019300F061
:105C700063F9041E31D1009B01210B4206D00120A3
:105C8000694600F059F9041E07D026E019430B209D
:105C900000F056F9041EF2D01FE0009B02210B42D7
:105CA00001D0052506E01943012000F049F9041E42
:105CB000F7D012E00F2001A900F03EF9041E0CD12C
:105CC000019B5B0707D40220013DFFF7FBF8002D85
:105CD000F0D1FC2401E000F027F960B23EBD0000E5
:105CE00038B5041C274800F023F9002803DB012005
:105CF000FFF7E8F8F6E7244800F01AF9C30709D5DA
:105D0000022C15D12149224800F01AF9802121489E
:105D100049031EE0204D0120FFF7D4F8013D1F4844
:105D200000F006F9002D2AD01D4B9842F3D1E7E789
:105D3000032C06D11549164800F002F91548002138
:105D400007E014481749042C03D100F0F9F8802427
:105D500002E000F0F5F80024FFF7FEFE124B00050C
:105D6000000D984202D90220204300E0201CFFF7DA
:105D7000B5FE0A480D4900F0E3F8002000E0FB20E2
:105D800040B238BD14100000BC0702007DD51C3C99
:105D9000AC0702008C100000D10700000C000C00C2
:105DA0009ED0AD10521352139F030000612F52EF8B
:105DB00037B5134B02380093124B01931D1C012879
:105DC00003D8114B0093114B0193FA24E4000020F7
:105DD000019B83420AD00220FFF774F8013C00982F
:105DE00000F0A6F8002CF3D1FB2407E0019B00246F
:105DF000AB4203D10248211C00F0A2F860B23EBDC4
:105E00008C10000036265302AC070200C3C15DD7D8
:105E100007B5A0200023400101A9019300F08CF8F0
:105E2000002807D1019B0449A0201940400101919D
:105E300000F086F840B20EBDFFFBFFFF37B5041C33
:105E40000D1C0A4801A900F077F800280CD10122A6
:105E5000019BA240002D01D0134300E09343019326
:105E60000248019900F06CF840B23EBD0801020002
:105E700037B5041C0D1C0A4801A900F05DF8002884
:105E80000CD10122019BA240002D01D0134300E060
:105E9000934301930248019900F052F840B23EBD8D
:105EA0000001020030B587B00023041C01A9184886
:105EB0000493059300F040F8002825D1019B002BA6
:105EC0000BD0C0208002184304A9082200F03CF83F
:105ED000002819D1049A019205E00E4801A900F0AA
:105EE0002BF8002810D1019AC02093B280021843E9
:105EF00002A90622019300F027F802A9051C062238
:105F0000201CFFF7CDF8281C40B207B030BDC046BA
:105F100008000C009C14000008B5FFF747F808BD06
:105F200008B5FFF7A9F808BD08B500F0DAFA08BD12
:105F300008B500F0EBFA08BD08B500F0EDFA08BDB1
:105F400008B500F0F3FA08BDF7B50E4B051C1C8828
:105F50000191083C161CA4B20027019BD919A64246
:105F600004D8B2B2281C00F02BFB09E0281C221C2C
:105F700000F026FB002803D1361B3F192D19ECE752
:105F800040B2FEBD3A000020F7B50E4B051C1C8840
:105F90000191083C161CA4B20027019BD919A64206
:105FA00004D8B2B2281C00F05DFB09E0281C221CBA
:105FB00000F058FB002803D1361B3F192D19ECE7E0
:105FC00040B2FEBD3A00002073B50023041C01A9B5
:105FD00022480193FFF7B0FF214B019A061C9A4219
:105FE00004D1204801A9FFF7A7FF061C019B0F253C
:105FF0001A0C91B2080A2A400909294062729AB221
:106000002172110A12092A402B4021716271A37179
:10601000E071FFF7A1FD002322792384A379617940
:1060200012022B4013430901FF2211400B430E497A
:1060300020600B60E179607A090205400D43217A06
:1060400009010A4009492A438A4200D9F326084A2D
:10605000934200D8F32670B276BDC046AC0702006A
:10606000C3C15DD7481000009C05002052130000FA
:10607000511300007FB5002102AD041C0191029173
:106080006960884201D1002042E02822FFF711F820
:10609000214801A9FFF750FF002839D101980028B5
:1060A00001D1F42034E0C026B6023043291C082276
:1060B000FFF74AFF00282BD1A88801900028F0D0D4
:1060C0003043211C2822FFF73FFF002820D12279EE
:1060D000A3790F201202034013436279FF211201BA
:1060E0000A4013430D4A1360627AE5790240207A30
:1060F0002D0200012A4301400A43002BD1D0002A7F
:10610000CFD007498A4202D8064A9342BBD8F3202F
:1061100040B204B070BDC04608000C009C050020D1
:10612000521300005113000038B5002803D0057841
:106130006B1E032B00D901250020FFF7EDFE041E86
:1061400028D1FFF709FDFF242401E82320409B000C
:10615000984207D100F0F4F9281CFFF7C1FD041E96
:1061600016D108E0FFF7F8FCAC2320409B00F02498
:1061700098420DD1EEE7281CFFF71AFE041E07D146
:10618000023D012D06D9FFF7BFFC002802D0041CF8
:10619000FFF7C6FE60B238BD10B5FFF739FE041E2A
:1061A00009D100F09DFE041E05D1FFF7B9FE041EC3
:1061B00001D100F0A5F960B210BD1FB501AB01908F
:1061C000002219810320191C0292FEF709FF05B075
:1061D00000BD1FB501AB0022029019810320191CDC
:1061E0000192FEF7FDFE05B000BD73B56C46061CBE
:1061F0000734CF2806D0031C3B33DBB2012B01D977
:106200000B250EE0201C0121FFF7E3FF0028F7D04B
:1062100000201CE02378B3420AD0013DEDB2002DEE
:1062200006D0201C0121FFF7D4FF0028F2D0EFE7B1
:106230000B25201C0121FFF7CCFF0028E8D1237893
:10624000002B03D0013DEDB2002DF2D1012040B270
:1062500076BD0000F0B585B000900C1C01920027BF
:106260008026B601B44200D8A6B20A2568460B3093
:106270000121FFF7AEFF002801D0002020E06A4690
:10628000D37A1B090F2B05D0013DADB22BB20133E0
:10629000ECD1F2E72DB2002DEFDD009BB6B238B2A3
:1062A0001818311CFFF795FF0028E6D1019A002A43
:1062B00009D0A41BF319A4B29FB2002CD0D10120A5
:1062C00040B205B0F0BD054B1B78002BF1D103A8FF
:1062D0000221FFF77EFF0028EBD0CEE7A0050020CB
:1062E00030B585B008AC257801AC2070C1380E28D7
:1062F00057D805F0DBF82121360E19192B2B480849
:10630000565656561B000B0C63700B0AA370E170B7
:1063100010E00B0ADBB2002D02D080225242134360
:106320006370A170002304E0002300E0FF2363708A
:10633000A370E370052138E00A0C62700A0AA270AB
:106340001A0AE1702271637107212EE00A0C627053
:106350000A0AA2701A0C22711A0AE1706271A37102
:106360000FE00B0ADBB2002D02D080204042034335
:106370006370130EE370130C2371130AA170637121
:10638000A271082111E00B0C63700B0AA370130EAD
:106390002371130C6371130AE170A371E271092177
:1063A00003E0002040B205B030BD0D4B4A1E1B7803
:1063B000002B0DD17F2001334000994206D0E51813
:1063C000013D2D786840074D285CF4E7A05400E0BB
:1063D000D1B2201CFFF7F1FE43425841C0B2E1E7C1
:1063E000A0050020C01A0100F0B585B0071C03917C
:1063F0000A25302F02D80123C32601E00023C92635
:106400000093301C391C039A0423FFF769FF041E14
:10641000012C05D1301CFFF7E8FE041E012C13D01F
:106420000120FEF74FFD00230093191C1A1CCF20FA
:10643000FFF756FF013DCF20FFF7D7FEEDB2012059
:10644000FEF740FD002DD4D160B205B0F0BDF0B52F
:1064500087B0029003910A27029AFF2A02D80126E8
:10646000C42501E00026CA250096281C02990022B6
:106470000423FFF735FF041E012C1DD1281CFFF754
:10648000B4FE041E012C17D105AD281C0421321CBA
:10649000FFF7E0FE041E012C0ED16A78AB781202E1
:1064A0001B0413432A781343EA7812061343039A12
:1064B000136060B207B0F0BD0120FEF703FD0023BA
:1064C0000093191C1A1CCF20FFF70AFFCF20FFF7FB
:1064D0008CFE0120FEF7F6FC7B1EDFB2002FBBD145
:1064E000E7E713B50024211C221C231C0094CF20B5
:1064F000FFF7F6FECF20FFF778FE201C16BD000048
:10650000014B002018707047A005002007B501A9B5
:10651000FFF79DFF01980EBD08B5FFF798FF012812
:1065200001D1002000E0FA2040B208BD08B5FFF715
:106530005BFF012801D1002000E0FA2040B208BD35
:1065400013B51D4C00231D4801A901932370FFF7CB
:106550007EFF002803D02378002B09D015E001230B
:10656000164801A92370FFF772FF0028F3D11DE040
:10657000019A7C239A435021114310480191FFF75F
:1065800033FF002812D00123237080204001694688
:10659000FFF75DFF00280BD00848FFF7B7FF702317
:1065A0009843502101430548FFF7C0FF002000E059
:1065B000FA2040B216BDC046A005002024E8000025
:1065C000F0B5151C89B00022059004910A270392AA
:1065D000012D01D10395022500260096C8200599BA
:1065E000321C2B1CFFF77CFE041E012C1CD1C82082
:1065F000FFF7FBFD041E012C16D1039BB3420AD00A
:10660000321C07A8291CFFF725FE6A46137F049A4F
:10661000041C137005E00498291C039AFFF71AFE66
:10662000041C63B2012B13D00120FEF74BFC0023A6
:106630000093191C1A1CCF20FFF752FECF20FFF742
:10664000D4FD0120FEF73EFC7B1EDFB2002FBFD140
:1066500064B2012C01D1002000E0FA2040B209B060
:10666000F0BD0000F0B50A2389B004900591151C17
:106670000393012D00D1022500260096C72004991E
:10668000321C2B1CFFF72CFE012854D1C720FFF72A
:10669000ACFD01284FD107AB1E802C1C8023221C8F
:1066A0009B019C4200D91A1C92B20292002E04D186
:1066B00003229C4205D9012203E00022A342524159
:1066C0000232102368465B421B301A4301210270DC
:1066D000FFF773FD00282ED1059B30B218180299E0
:1066E000FFF76BFD002826D1204F3B78002B07D009
:1066F000029BE41A9E19A4B2B6B2002CCED106E0D9
:1067000007A80221FFF759FD0028F1D013E03E78D9
:1067100007A8731E9E410236311CFFF75AFD002860
:1067200009D107AB9E19731E1B78002B03D1023EC3
:106730003378C32B16D00120FEF7C4FB002300934F
:10674000191C1A1CCF20FFF7CBFDCF20FFF74DFD02
:106750000120FEF7B7FB039B013BDBB20393002B49
:1067600087D1FA2460B209B0F0BDC046A005002070
:10677000F0B50F1C9BB0141C412801D0542816D131
:1067800009AD201C291C04220023FEF79BFE0028D3
:1067900000D02CE16B7805AA1370964B196800297C
:1067A00000D124E100201B682856012117E042286F
:1067B00017D109AD101C291C04220023FEF782FE0C
:1067C000002800D013E16B7805AA1370894B196873
:1067D000002900D10BE100201B68285602219847B0
:1067E00005E143283FD105AD101C291C0C220023D4
:1067F000FEF768FE002800D0F9E0697A48B2002868
:106800001FDB0823EB567C4A1B01D318DE7A0001FC
:106810001318F6B2DE7201269E726C89083CA4B28F
:106820001C81764B1C88A419A4B21C801C88002CE7
:1068300003D11C88A419A4B21C801B8810189BB219
:10684000C38009AA0223117093806B886968D38082
:10685000684B91601968002900D1C8E008201B68C6
:1068600028560421BBE7442801D04B2821D109AD8B
:10687000201C291C04220023FEF724FE002800D03F
:10688000B5E0287805AA10706B785370002B07D1FB
:10689000698843B2584C08391B0189B2E318198141
:1068A000544B1968002900D1A1E01B6840B20521B2
:1068B00095E74A2812D1101C09A944220023FEF7AB
:1068C00001FE002800D092E04D4B1A68002A00D14A
:1068D0008DE01B68199909A8984788E0462803D0DD
:1068E000482803D04D2847D1062600E0092605ADEB
:1068F0001022201C291C0023FEF7E4FD021E76D185
:10690000EB890C20019328563B490301CB180093D7
:106910001A736B89298903938C4669886D6809AB62
:10692000DD60009D5981E988019D8D421CD1614641
:106930000DB23049002D0BDDBD4209DA314D012782
:106940002F7065469D80039DDA8064191C6003E00A
:1069500062469A80002209920A68002A47D00C6891
:106960001A1C311CA04742E0102F40D9101C111CEA
:106970000123FEF7A7FD3AE0452803D0472803D0BE
:106980004C281ED1072600E0082609AD201C291C32
:1069900008220023FEF796FD002828D128786B886E
:1069A00005AA40B2144CA98813800301E318DB88C0
:1069B00099421CD10F4B1968002918D01B68311C53
:1069C0000DE7522813D109AD101C291C14220123F4
:1069D000FEF778FD00280AD10B4B696819601A6828
:1069E000002A04D01B682868A9682A7C98471BB035
:1069F000F0BDC046AC120020FC110020A405002010
:106A0000B41200208C050020B012002038B5094DCA
:106A10002C78E4B2002C0CD10748211CB022FEF7E0
:106A200048FB02200549FEF779FD01232B70044B3A
:106A30001C8038BDA3050020FC11002071670000F8
:106A4000A4050020024B1860024B19607047C04635
:106A5000AC120020B4120020F0B5171C89B0022837
:106A60005FD101291AD10726304D07212B782C78C8
:106A7000DBB2287805932E4B24010130E41804F092
:106A8000C3FDC9B22970A37A002B02D1059BDDB2E8
:106A90001EE0013EF6B2002EE6D142E0022940D1CE
:106AA0000422244B24491D781C78032024016418F7
:106AB0001978EDB2013101401970A37A002B02D18F
:106AC0000735EDB204E0013AD2B2002AE9D128E05C
:106AD0006BB2002B26DB1022201C0021FEF7E9FA06
:106AE0000123A372154B1A88013292B21A801A88B8
:106AF000002A03D11A88013292B21A801B889BB2F5
:106B0000E380FB070ED52123E37207AA002315704B
:106B1000502100930193029302200423FEF75AFBB5
:106B200000E0FF2568B209B0F0BDC046A205002014
:106B3000FC110020A10500206C120020A4050020FB
:106B4000F0B5141C89B000282CDB00292AD0174F7F
:106B50000601BB199A7A0833D2B2012A22D1002C3D
:106B600020D0DC784425A446674605AC174202D005
:106B7000DB784B25637220720822201CFEF790FA06
:106B80000A4F0220BE19F388291C63810023009359
:106B900001930293221C0C23FEF71CFB002802D059
:106BA000F72000E0FA2040B209B0F0BDFC1100204F
:106BB000F0B50D1C89B0002835DB002933D0AF2398
:106BC000DB009A422FD81A4906018C19231C08337E
:106BD0009B78012B27D104AB18705A80E4889C81E4
:106BE0004424062800DC50248919CE7A4520F70772
:106BF0000AD50C890F49A4B208680F49884201D907
:106C00004C2001E04C205524802101430192009545
:106C10001A1C029410230220FEF7DCFA002398428B
:106C200002D0064B00E0064B18B209B0F0BDC046DA
:106C3000FC1100209C0500203F130000F2FF000023
:106C4000FAFF0000F0B587B000282CDB184F0501D3
:106C50007C19A67AA446F6B20834012E23D1E95154
:106C600061468A802179002291421DD12671E27805
:106C70004D21324200D14621002B01D101235B423C
:106C800004AA107104937D19EB880024D38002209C
:106C90000094019402940823FEF79CFA221CA0425F
:106CA00002D0044A00E0044A10B207B0F0BDC0466A
:106CB000FC110020F2FF0000FAFF0000F0B587B0E1
:106CC000002824DB144E05017419A77A211CFFB299
:106CD0000831012F1BD105AA1070E38853800023CF
:106CE0008B70E380C8784E21384200D1492100934F
:106CF0000193029302200423FEF76CFA041E00D0D5
:106D0000F724701900211022FEF7D3F900E0FA24CD
:106D100060B207B0F0BDC046FC110020F0B589B0EC
:106D2000049200282EDB194A050157193C1C08342F
:106D3000A6789446F6B2012E24D1A278002A01D179
:106D4000002320E06246A950049ABA802279002AE2
:106D5000F6D12671002B01D101235B4206AA1071E6
:106D600006936544EB880024D38002200823009416
:106D7000019402944821FEF72DFA231CA04202D070
:106D8000034B00E0034B18B209B0F0BDFC1100202A
:106D9000F2FF0000FAFF00001FB5041CFEF791F996
:106DA000C3B2402B0BD80021C0B2431C009101910B
:106DB0000291221C4A210220FEF70CFA00E0FA2080
:106DC00040B204B010BD0000F0B599B01EAC2488EC
:106DD000059400287DDB002B7BD0404E0501741903
:106DE00004940834A778FFB2012F72D102295AD136
:106DF00006286EDCE6783E426BD0012A08D118687E
:106E0000E378002802D01943E1704AE08B430BE09D
:106E1000032A0BD11868E2781023002802D013430C
:106E2000E3703EE09A43131CE37053E0042A0FD151
:106E30001B68002B05D0294F40227D19EB7A1343A4
:106E400004E0264A5519EB7A40229343EB7228E07E
:106E5000022A3ED1059C3F2C3BD8204E06AC207028
:106E60007519EA88059F191C00266280022508A86A
:106E7000402265700797FEF713F900960196029677
:106E8000281C5121221C4823FEF7A4F9033008D105
:106E9000009601960296281CD121221C4823FEF759
:106EA00099F9002016E01B6806AC6271049A207103
:106EB0000693D3880220E38000230093019302937A
:106EC0004F21221C0823FEF785F9002802D0F72065
:106ED00000E0FA2040B219B0F0BDC046FC1100201D
:106EE00073B5061CFEF738FE294B0005000D002483
:106EF00098424BD9274801A9FFF71EF8041E45D137
:106F0000019B254D25492B40194322480191FFF74C
:106F100017F82348211C002E20D0FFF711F8AB21D1
:106F20002048FFF70DF801211F48FFF709F8211C41
:106F30001E48FFF705F81E488121FFF701F81D489C
:106F4000FEF7F6FF0128FAD1019B80211D4049027E
:106F5000294310480191FEF7F3FF17E0FEF7F0FF19
:106F6000B9211048FEF7ECFF01210F48FEF7E8FFBA
:106F7000211C0E48FEF7E4FF0D488121FEF7E0FFDB
:106F80000C48FEF7D5FF0128FAD1DDE760B276BDE7
:106F90009F03000010140000FF8F88F800101101FB
:106FA000080201000C020100140201001C02010091
:106FB0000402010018020100014B0833036070470E
:106FC000C01B010010B5044B041C0833036002F021
:106FD0006BFA201C10BDC046C01B01000C4B70B5E5
:106FE0000833051C0360041C0B260021FF23201C12
:106FF00021716371A18121626162A1622C30102232
:10700000013E07F07BF83834002EEED1281C70BD0D
:10701000C01B010010B5041C081C111C1A1CFFF732
:107020001BFD002806DB382343430122E3181A71B5
:10703000FF225A7110BD13B504AC01CC208800901A
:10704000081C111C1A1C049BFFF7BEFE16BD000095
:10705000F7B5071C0D1C161C081C111C1A1CFFF789
:107060006FFD002812DB38246C4302233C19237186
:1070700001F01AFD01902379022B0AD101F014FDD1
:10708000019A114B801A984219D902E0002358B294
:10709000FEBD22790023032A02D001222271F6E7E5
:1070A00038216943A381728876687F187A82191C17
:1070B0001A1C7E61281CFFF7C5FD0123E7E70020AD
:1070C000FEF7E6FBD7E7C0461F4E000038B5041CAC
:1070D00000200D1CFEF7DCFB38235D43641920798A
:1070E000033843425841C0B238BD38B5041C0020B3
:1070F0000D1CFEF7CDFB38210B1C6B43E3181A79EE
:10710000032A02D00020052A05D14D4364190C2220
:10711000985EA36AC01838BD38235A4310B5891841
:10712000041C496902F05CF9201C10BD3823594346
:107130004018408A70470000F8B5041C00200E1C5F
:107140001D1C171CFEF7A4FB38237343E418237996
:107150000024032B22D1211C0520FEF72EFA022049
:10716000211CFEF72AFAAAB2301C391C0023FFF7B3
:107170001FFD002809DA0E3006D1094B18780028C7
:1071800002D1FEF785FBEEE7002501210520FEF781
:1071900014FA02200121FEF710FA2C1C201CF8BD65
:1071A0008C050020F8B50D1C38246C43061C3419DE
:1071B0000020FEF76DFB2379032B01D0052B0AD1AC
:1071C0000C22A35E002B06DD0022A281101C111CE4
:1071D0000123FEF777F9002323713827FF2363711A
:1071E0003B1C6B43F318186A002801D006F05AFFC5
:1071F000381C6843002332183018136253629362BC
:10720000191CA38110222C3006F078FF281CFFF7F0
:1072100055FDF8BDF7B538274F43C7193A6A3E1CEC
:10722000041C0D1C18360192002A07D1B820C0009A
:1072300006F02EFF019BB060F060BB6238210E1C8F
:107240006E43A6190C22B35EB8221F1CD2009342D3
:1072500000DD171C4D43FB1A641959424B41DBB248
:10726000BAB2B068216AFEF72DF9251C0023183543
:10727000984209D1AB68EB60A762B268D319B360DA
:10728000B389DF1BB7810123181CFEBD70B50C1C30
:1072900038266643051CAE190020FEF7F9FA33794B
:1072A000032B04D0052B02D0012040421CE0281CF7
:1072B000211CFFF71AFF0028F6D038236343EB1890
:1072C0009B6A002B05D038235C432D196B6A187814
:1072D0000AE00C22B35E002BF5D0281C211CFFF71E
:1072E00099FF0028EFD1DFE770BDF0B5051C87B02E
:1072F00000200C1C01930592FEF7CAFA3823634361
:10730000EB1804931B79032B03D0052B01D000202D
:107310005DE0281C211CFFF7E8FE0028F7DD01993D
:10732000814200DD019000220292019A002A10D0D1
:1073300038236343EB189B6A002B11D104990C236B
:10734000CB5E002B0CD0281C211CFFF763FF00280C
:1073500006D138236343ED18AB6A002B23D035E008
:107360003822131C6343EB189B6A019E9E4200DD8A
:107370001E1C6243AA18171C516A03920598321CFE
:1073800006F09AFE7A6A93197B62039B996A8A1BBC
:107390009A620299059A019B92199B1B8919059281
:1073A00001930291C1E7049902980C23CB5E002B54
:1073B0000DD1201C191C1A1C062C02DCFFF742FC04
:1073C00001E0FFF7ABFC0020FEF762FA029807B07D
:1073D000F0BD70B5051C501E0E1C1C1C082800D9E1
:1073E00081E004F063F8051080213C46808046006F
:1073F000002B0AD00023E356002B06D138235E432E
:107400000523AD1905E0002B05D138235E43012388
:10741000AD192B7167E00023E356002BF5D138231B
:107420005E430723AD19F4E7002B5CD000229A5687
:10743000002A58DB38235A430821AA181171002268
:10744000A2565A43AA1856710022A2560434534336
:10745000ED18103507CC07C524682C6043E0002BDD
:10746000D3D05B787F2BD0D838235E430323AD196C
:10747000CFE700210520FEF7A0F802200021FEF74B
:107480009CF8A28813B2002B04DC281C311CFFF7E7
:1074900089FE20E038237343EB181979032901D0C2
:1074A000052912D120689A819860062E08DD3823BC
:1074B0007343EB181033083407CC07C324681C60EF
:1074C000281C311CFFF7A6FE05E00020011C021C51
:1074D0000123FDF7F7FF01210520FEF76EF80220DA
:1074E0000121FEF76AF870BD38B5051C0C1C131C91
:1074F000291C0248221CFFF76CFF38BDB005002094
:1075000013B50023191C1A1C0093064801F05AFFFA
:10751000054C201CFFF762FD201C0449044A06F0BC
:1075200079FD13BDA8050020B0050020B96F00004B
:107530000000002008B5024802F086FC08BDC046E5
:107540001C08002008B5024802F07EFC08BDC046B9
:10755000A0090020F7B5164F1649381C02F09EF816
:107560001549164802F09AF81549164802F096F89F
:107570001549164802F092F81549164802F08EF89F
:10758000154D03260124281C144902F087F8391CE4
:107590000096231C01940022114802F071FB009612
:1075A000291C01941F221E230E4802F069FBF7BD1F
:1075B000280B002000080042000C00422C0B002089
:1075C00000100042300B002000140042240B002069
:1075D00000180042340B0020380B0020001C004231
:1075E0001C080020A009002010B5021C26480B1C16
:1075F000490086B0490881421EDD2448814205DDEC
:10760000101C191C06F03AF806B010BD101C191C0D
:1076100002AA00F095F80323184001281DD0022883
:1076200011D0002824D0012402980399049A059BC4
:10763000009400F0FDFFE7E7101C191C114B104AE5
:1076400000F0BAFAE0E7049A059B0298039900F06B
:10765000B3FA80231B06C918D6E7049A059B00904D
:107660000298039900F0E4FF80231B06C918CBE7BA
:1076700002980399049A059B00F09EFAC4E7C0465D
:107680000000000000000000FB21E93FFFFFEF7F4A
:1076900010B5021C28480B1C490086B049088142DD
:1076A0001FDD2648814205DD101C191C05F0E6FF90
:1076B00006B010BD101C191C02AA00F041F80323EB
:1076C0001840012822D0022814D0002825D0049A7E
:1076D000059B0298039900F06FFA80231B06C918D6
:1076E000E6E700210091101C191C124B104A00F013
:1076F0009FFFDDE70124049A059B029803990094FB
:1077000000F096FF80231B06C918D1E7049A059B59
:107710000298039900F050FACAE7012402980399ED
:10772000049A059B009400F083FFC1E7C046C04661
:107730000000000000000000FB21E93FFFFFEF7F99
:10774000F0B556464D4644465F46F0B44B005E08E1
:10775000A34B91B0041C0D1C91468A469E4200DC4E
:1077600086E0A04B9E4223DC002900DCCEE1291CF0
:107770008C4B8B4A05F082FF9B4B041C0D1C9E42D8
:1077800000D18FE0884A894B05F078FF021C0B1C62
:1077900049460A604B60201C291C05F06FFF824A95
:1077A000824B05F06BFF4A469060D160012067E094
:1077B0008E4B9E4200DC91E08D4B9E4267DC8D49F2
:1077C0003315C9180B05F51A8B46291C041C06F045
:1077D0007FFA06F0B1FA021C0B1C201C291C0A922D
:1077E0000B9305F04BFF724A724B05F0B7FC0F1C70
:1077F000061C06F06DFA06F09FFA041C0D1C221CF4
:107800002B1C301C391C0C940D9505F037FF684A71
:10781000684B05F0A3FC684A684B0E900F9103F08B
:107820000FFF002800D192E1634A644B201C291C01
:1078300003F006FF431E984102231B1A0222009206
:107840006D4A0AA8019249465A4600F0D9FA5246B2
:10785000002A15DA4C4664688021090663184946F7
:10786000CA68802424064B601319CB60404207E0AD
:10787000111C14605560504A504B8A60CB60002048
:1078800011B03CBC90469946A246AB46F0BD221CC6
:107890002B1C05F0F3FE4A469060D16010605160E9
:1078A0000020EDE7464A474B05F0E8FE464A474BC5
:1078B000041C0D1C05F0E2FE021C0B1C49460A606C
:1078C0004B60201C291C05F0D9FE3F4A3F4B05F0B8
:1078D000D5FE4A469060D1600120D1E700F054FF08
:1078E0003B4A3C4B041C0D1C05F038FC3A4A3B4B10
:1078F00004F0AEFC06F0ECF9834606F01DFA294BC5
:10790000274A0490059105F029FC021C0B1C201C41
:10791000291C05F0B3FE244A244B029003910498DD
:10792000059905F01BFC5B460690079102980399A8
:107930001F2B65DC5A46013A304B9200D358B342B4
:107940005ED0069A079B05F099FE0D1C0F1C041CC7
:1079500049460C604D60804642463B1C02980399A4
:1079600005F08CFE069A079B05F088FE4A46041C2B
:107970000D1C9460D5605446031C5846002C00DB57
:107980007EE744461460802212064C46BF188918D0
:107990006760A360E160404272E7C046C046C046EF
:1079A00000004054FB21F93F3163621A61B4D03DBD
:1079B0000000000000007041000000000000000016
:1079C0000000601A61B4D03D7370032E8A19A33B86
:1079D00083C8C96D305FE43F000000000000E03F55
:1079E000FB21E93F7BD90240FB21F93FFB213941D3
:1079F000FFFFEF7FEAFBFFFFA02001002020010036
:107A0000069A079B05F03AFE4B00041C0D1C4A46E3
:107A100036155B0D80460F1C14605560F31A102B51
:107A20009ADD584B564A0498059905F097FB041CBB
:107A30000D1C221C2B1C0298039905F01FFE0890B8
:107A40000991089A099B0298039905F017FE221CD8
:107A50002B1C05F013FE4C4A4C4B041C0D1C0498C7
:107A6000059905F07BFB221C2B1C05F007FE0690F8
:107A70000791069A079B0898099905F0FFFD4B4668
:107A80000D1C041C1C605D604B005B0D0F1C8046D0
:107A90000899099AF31A02910392312B00DC5BE7F3
:107AA0003B4A3C4B0498059905F058FB041C0D1CFF
:107AB000221C2B1C0298039905F0E0FD0290039113
:107AC000029A039B0898099905F0D8FD221C2B1CEB
:107AD00005F0D4FD304A314B041C0D1C0498059967
